{
  "transactions": [
    {
      "hash": "0xe4bfed192a47efcf76a3f713f49be185b045a3ec19683dc6e924c55c48c4c65b",
      "transactionType": "CREATE",
      "contractName": "XCMProbe",
      "contractAddress": "0x701814239044ad360c04d9c1d5e8fb9033a129a2",
      "function": null,
      "arguments": null,
      "transaction": {
        "from": "0x88f713a8d2bf0cfd51f84f3e1cbcef04493547fe",
        "gas": "0xf2809",
        "value": "0x0",
        "input": "0x6080604052348015600e575f5ffd5b506106be8061001c5f395ff3fe608060405234801561000f575f5ffd5b5060043610610034575f3560e01c80634a24bddf14610038578063b47bb18e14610054575b5f5ffd5b610052600480360381019061004d9190610384565b610070565b005b61006e60048036038101906100699190610384565b6101e7565b005b5f5f620a000073ffffffffffffffffffffffffffffffffffffffff16848460405160240161009f929190610429565b6040516020818303038152906040526347400c2360e01b6020820180517bffffffffffffffffffffffffffffffffffffffffffffffffffffffff83818316178352505050506040516100f1919061049d565b5f604051808303815f865af19150503d805f811461012a576040519150601f19603f3d011682016040523d82523d5f602084013e61012f565b606091505b509150915081801561014357506040815110155b156101a5575f5f8280602001905181019061015e91906104f0565b915091507f495d71f18acb837625de4627dee5fd0d1b8b9da90fb33f99bcc9d545dff201686001838360405161019693929190610557565b60405180910390a150506101e1565b7f495d71f18acb837625de4627dee5fd0d1b8b9da90fb33f99bcc9d545dff201685f5f5f6040516101d8939291906105ce565b60405180910390a15b50505050565b5f6040518060400160405280637735940067ffffffffffffffff1681526020016202000067ffffffffffffffff1681525090505f620a000073ffffffffffffffffffffffffffffffffffffffff1684848460405160240161024a9392919061063f565b60405160208183030381529060405263d3b7e04d60e01b6020820180517bffffffffffffffffffffffffffffffffffffffffffffffffffffffff838183161783525050505060405161029c919061049d565b5f604051808303815f865af19150503d805f81146102d5576040519150601f19603f3d011682016040523d82523d5f602084013e6102da565b606091505b505090507f538f76c123514263feeac4231f2dd672836c913e0ae0d9b8eef0489cb5b25b3c8160405161030d919061066f565b60405180910390a150505050565b5f5ffd5b5f5ffd5b5f5ffd5b5f5ffd5b5f5ffd5b5f5f83601f84011261034457610343610323565b5b8235905067ffffffffffffffff81111561036157610360610327565b5b60208301915083600182028301111561037d5761037c61032b565b5b9250929050565b5f5f6020838503121561039a5761039961031b565b5b5f83013567ffffffffffffffff8111156103b7576103b661031f565b5b6103c38582860161032f565b92509250509250929050565b5f82825260208201905092915050565b828183375f83830152505050565b5f601f19601f8301169050919050565b5f61040883856103cf565b93506104158385846103df565b61041e836103ed565b840190509392505050565b5f6020820190508181035f8301526104428184866103fd565b90509392505050565b5f81519050919050565b5f81905092915050565b8281835e5f83830152505050565b5f6104778261044b565b6104818185610455565b935061049181856020860161045f565b80840191505092915050565b5f6104a8828461046d565b915081905092915050565b5f67ffffffffffffffff82169050919050565b6104cf816104b3565b81146104d9575f5ffd5b50565b5f815190506104ea816104c6565b92915050565b5f5f604083850312156105065761050561031b565b5b5f610513858286016104dc565b9250506020610524858286016104dc565b9150509250929050565b5f8115159050919050565b6105428161052e565b82525050565b610551816104b3565b82525050565b5f60608201905061056a5f830186610539565b6105776020830185610548565b6105846040830184610548565b949350505050565b5f819050919050565b5f819050919050565b5f6105b86105b36105ae8461058c565b610595565b6104b3565b9050919050565b6105c88161059e565b82525050565b5f6060820190506105e15f830186610539565b6105ee60208301856105bf565b6105fb60408301846105bf565b949350505050565b61060c816104b3565b82525050565b604082015f8201516106265f850182610603565b5060208201516106396020850182610603565b50505050565b5f6060820190508181035f8301526106588185876103fd565b90506106676020830184610612565b949350505050565b5f6020820190506106825f830184610539565b9291505056fea2646970667358221220423fdf1b8623c4b1c71b6183276cfefdfb1d52e94fd199dd5d1a172a080f266164736f6c634300081c0033",
        "nonce": "0x2",
        "chainId": "0x190f1b41"
      },
      "additionalContracts": [],
      "isFixedGasLimit": false
    },
    {
      "hash": "0x23fed855b2e1c9731c9f0ecec19b9d35ca4e4f04c34a09f4c928a021e2523ef9",
      "transactionType": "CALL",
      "contractName": "XCMProbe",
      "contractAddress": "0x701814239044ad360c04d9c1d5e8fb9033a129a2",
      "function": "probeWeigh(bytes)",
      "arguments": [
        "0x050c000401000003008c86471301000003008c8647000d010101000000010100368e8759910dab756d344995f1d3c79374ca8f70066d3a709e48029f6bf0ee7e"
      ],
      "transaction": {
        "from": "0x88f713a8d2bf0cfd51f84f3e1cbcef04493547fe",
        "to": "0x701814239044ad360c04d9c1d5e8fb9033a129a2",
        "gas": "0x7c7",
        "value": "0x0",
        "input": "0x4a24bddf00000000000000000000000000000000000000000000000000000000000000200000000000000000000000000000000000000000000000000000000000000040050c000401000003008c86471301000003008c8647000d010101000000010100368e8759910dab756d344995f1d3c79374ca8f70066d3a709e48029f6bf0ee7e",
        "nonce": "0x3",
        "chainId": "0x190f1b41"
      },
      "additionalContracts": [],
      "isFixedGasLimit": false
    },
    {
      "hash": "0xa4e2d801848e1b8978c6d8ad0de70c86386ed6267259a27359b001ac819568ea",
      "transactionType": "CALL",
      "contractName": "XCMProbe",
      "contractAddress": "0x701814239044ad360c04d9c1d5e8fb9033a129a2",
      "function": "probeExecute(bytes)",
      "arguments": [
        "0x05040a"
      ],
      "transaction": {
        "from": "0x88f713a8d2bf0cfd51f84f3e1cbcef04493547fe",
        "to": "0x701814239044ad360c04d9c1d5e8fb9033a129a2",
        "gas": "0x6f6",
        "value": "0x0",
        "input": "0xb47bb18e0000000000000000000000000000000000000000000000000000000000000020000000000000000000000000000000000000000000000000000000000000000305040a0000000000000000000000000000000000000000000000000000000000",
        "nonce": "0x4",
        "chainId": "0x190f1b41"
      },
      "additionalContracts": [],
      "isFixedGasLimit": false
    }
  ],
  "receipts": [
    {
      "status": "0x1",
      "cumulativeGasUsed": "0x0",
      "logs": [],
      "logsBloom": "0x00000000000000000000000000000000000000000000000000000000000000000000000000000000000000000000000000000000000000000000000000000000000000000000000000000000000000000000000000000000000000000000000000000000000000000000000000000000000000000000000000000000000000000000000000000000000000000000000000000000000000000000000000000000000000000000000000000000000000000000000000000000000000000000000000000000000000000000000000000000000000000000000000000000000000000000000000000000000000000000000000000000000000000000000000000000",
      "type": "0x2",
      "transactionHash": "0xe4bfed192a47efcf76a3f713f49be185b045a3ec19683dc6e924c55c48c4c65b",
      "transactionIndex": "0x2",
      "blockHash": "0xcf8918d31bd37140f1ee62e9c5515eb51b3d5b7d5b3ef2a83c19fb2217d10528",
      "blockNumber": "0x5e9368",
      "gasUsed": "0xba873",
      "effectiveGasPrice": "0xe8d4a51000",
      "from": "0x88f713a8d2bf0cfd51f84f3e1cbcef04493547fe",
      "to": null,
      "contractAddress": "0x701814239044ad360c04d9c1d5e8fb9033a129a2"
    },
    {
      "status": "0x1",
      "cumulativeGasUsed": "0x0",
      "logs": [
        {
          "address": "0x701814239044ad360c04d9c1d5e8fb9033a129a2",
          "topics": [
            "0x495d71f18acb837625de4627dee5fd0d1b8b9da90fb33f99bcc9d545dff20168"
          ],
          "data": "0x0000000000000000000000000000000000000000000000000000000000000001000000000000000000000000000000000000000000000000000000003a67c8400000000000000000000000000000000000000000000000000000000000002abf",
          "blockHash": "0x91aa51cf91ad726f6983522d81c69d465e67830f8365b0b3fc4ee292a07f6d69",
          "blockNumber": "0x5e9369",
          "transactionHash": "0x23fed855b2e1c9731c9f0ecec19b9d35ca4e4f04c34a09f4c928a021e2523ef9",
          "transactionIndex": "0x2",
          "logIndex": "0x5",
          "removed": false
        }
      ],
      "logsBloom": "0x00000000000000000000000000000000000000000000000000000000000000000000000000000000000000000008000000000000000000000000000000800000000000000000000000000000000000000000000000000000000000000000000000000000000000000000000000000000000000000000000000000000000000000000000000000000000000000000000000000000000000000000000000000000000000000000000000000000000000000008000800000000000000000000000000000000000000000000000000000000000000000000000000000000000000000000000000000000000000000000000000000400000000040000000000000000",
      "type": "0x2",
      "transactionHash": "0x23fed855b2e1c9731c9f0ecec19b9d35ca4e4f04c34a09f4c928a021e2523ef9",
      "transactionIndex": "0x2",
      "blockHash": "0x91aa51cf91ad726f6983522d81c69d465e67830f8365b0b3fc4ee292a07f6d69",
      "blockNumber": "0x5e9369",
      "gasUsed": "0x5d7",
      "effectiveGasPrice": "0xe8d4a51000",
      "from": "0x88f713a8d2bf0cfd51f84f3e1cbcef04493547fe",
      "to": "0x701814239044ad360c04d9c1d5e8fb9033a129a2",
      "contractAddress": null
    },
    {
      "status": "0x1",
      "cumulativeGasUsed": "0x0",
      "logs": [
        {
          "address": "0x701814239044ad360c04d9c1d5e8fb9033a129a2",
          "topics": [
            "0x538f76c123514263feeac4231f2dd672836c913e0ae0d9b8eef0489cb5b25b3c"
          ],
          "data": "0x0000000000000000000000000000000000000000000000000000000000000001",
          "blockHash": "0x487baf56c0aa05a0cf92d5f496c92f2b560f42c0087fc45c4d52fa211c16b8be",
          "blockNumber": "0x5e936b",
          "transactionHash": "0xa4e2d801848e1b8978c6d8ad0de70c86386ed6267259a27359b001ac819568ea",
          "transactionIndex": "0x2",
          "logIndex": "0x6",
          "removed": false
        }
      ],
      "logsBloom": "0x00000000000000000000000000000000000008000000000000000000000000000000000000000000000000000000000000000000000000000000000000800000000000000000000000000000000000000000000000000000000000000000000000000000000000000000000000000000000000000000000000000000000000000000000000000010000000000000000000000000000000000000000000000000000000000000000000000000000000000000000800000000000000000000000000000000000000000000000000000000000000000000000000000000000000000000000000000000000000000000000000200000000000040000000000000000",
      "type": "0x2",
      "transactionHash": "0xa4e2d801848e1b8978c6d8ad0de70c86386ed6267259a27359b001ac819568ea",
      "transactionIndex": "0x2",
      "blockHash": "0x487baf56c0aa05a0cf92d5f496c92f2b560f42c0087fc45c4d52fa211c16b8be",
      "blockNumber": "0x5e936b",
      "gasUsed": "0x543",
      "effectiveGasPrice": "0xe8d4a51000",
      "from": "0x88f713a8d2bf0cfd51f84f3e1cbcef04493547fe",
      "to": "0x701814239044ad360c04d9c1d5e8fb9033a129a2",
      "contractAddress": null
    }
  ],
  "libraries": [],
  "pending": [],
  "returns": {},
  "timestamp": 1773080811139,
  "chain": 420420417,
  "commit": "6f2a346"
}